:020000040800F2
:1000000000200020D5010008DB010008DD01000808
:1000100000000000000000000000000000000000E0
:10002000000000000000000000000000DF010008E8
:100030000000000000000000E1010008D52C0008CD
:10004000E5010008E5010008E5010008E5010008F8
:10005000E5010008E5010008E5010008E5010008E8
:10006000E5010008E5010008E5010008E5010008D8
:10007000E5010008E5010008E5010008E5010008C8
:10008000E5010008E501000800000000E5010008A6
:10009000E5010008E5010008E5010008E5010008A8
:1000A000E5010008E5010008D53E0008E50100086B
:1000B0002943000800000000E501000800000000DE
:1000C0005FF808F130B583B0314B324A1360324AE1
:1000D0001360324B02E000221A600433304A93422C
:1000E000F9D32C4B1B68002B03D12B4B1B68002B27
:1000F00000D0FEE7264B2B4A13602B4A13602B4B94
:100100002B4A03E0116819600433043229498B42F9
:10011000F8D3244B1A68284B9A4204D1224B1A6810
:100120001B689A4200D0FEE701F001FC694601A875
:1001300001F0F2FB214C224BE41AA4100025AC4242
:1001400014DC204C204BE41AA4100025AC4213DC34
:100150000099019803F01AFD05001C4C1C4BE41A91
:10016000A410002C0EDC280001F0ACFBAA00144BFC
:10017000D35898470135E2E7AA00134BD358984764
:100180000135E3E7013CA200114BD3589847E8E75B
:10019000BABADECA8C000020B40C00208C0000200B
:1001A000B80C002000000020880000200000002083
:1001B000285500088C00002078563412E801000809
:1001C000E8010008EC010008E8010008EC01000863
:1001D000EC01000810B5FFF775FFFEE7FEE7FEE74C
:0801E000FEE7FEE7FEE7000068
:0401E800C93D000805
:1001EC0010B504000A4B984203D08521094801F050
:1001FC0095FB074B9C4200D010BD8024A40001212C
:10020C00200000F0D1FE0021200000F0CDFEF3E72D
:10021C00002401405C4D000870B505000C00344B07
:10022C00984203D0A121334801F078FB2368002BBE
:10023C0005D0082B03D0102B01D0182B3ED12379DD
:10024C00012B40D8A368002B0BD08022D200934204
:10025C0007D080221201934203D0C0221201934294
:10026C0036D1E368002B09D0402B07D0802B05D06A
:10027C00C02B03D08022520093422ED12369002B35
:10028C0001D0202B2ED16369002B05D0042B03D079
:10029C00A721184801F042FBEB68174A1A40237952
:1002AC005B0321680B43A1680B43E1680B43216995
:1002BC000B4361690B431343EB6070BDA2210D48E6
:1002CC0001F02CFBBBE7A3210A4801F027FBB9E79F
:1002DC00A421084801F022FBC3E7A521054801F041
:1002EC001DFBCBE7A621034801F018FBCBE7C0466A
:1002FC00002401405C4D000803D2FFFF0023036083
:10030C0003718360C36003614361704770B504007F
:10031C000D000D4B984203D0E9210C4801F0FEFA78
:10032C00012D06D8002D09D1A36802221343A36026
:10033C0070BDEA21054801F0F1FAF3E7A368012248
:10034C001343A360F4E7C046002401405C4D000851
:10035C0070B504000D0016000D4B984203D00D49EA
:10036C000D4801F0DBFA002D01D0EB0C04D0B421C8
:10037C008900094801F0D2FA072E04D8A16A294352
:10038C00A162666170BD0549034801F0C7FAF5E743
:10039C0000240140CF0200005C4D0008D102000097
:1003AC0010B504000D4B984203D00D490D4801F0D7
:1003BC00B5FAA26880231B061343A3600023A1682F
:1003CC000133F0221202934201D00029F7DBA3681B
:1003DC00002B01DB206C10BD0020FCE70024014049
:1003EC003D0300005C4D000810B50400054B98421D
:1003FC0003D00549054801F091FAA3680422134380
:10040C00A36010BD002401406F0300005C4D000888
:10041C0070B504000D000D4B984204D0EA21890000
:10042C000B4801F07BFA012D06D8002D09D1E368A9
:10043C0001229343E36070BD0649054801F06EFA52
:10044C00F3E7E36801221343E360F4E7002401407F
:10045C005C4D0008A903000070B504000D00074BAB
:10046C00984203D00649074801F058FAE368022283
:10047C009343E360E1682943E16070BD00240140CF
:10048C00C30300005C4D000870B505000C001A4B4E
:10049C00984203D019491A4801F040FA631E012B07
:1004AC0017D9042C15D0082C13D0802C11D0102C5B
:1004BC000FD0144B9C420CD0134B9C4209D0134BC5
:1004CC009C4206D0124B9C4203D081231B069C42BB
:1004DC0008D1E3010CD5AB680E4A13401C4209D17C
:1004EC00002070BD8B21C900054801F017FAF0E718
:1004FC002B68F3E70120F4E70024014057040000C7
:10050C005C4D000801000001020000010400000124
:10051C0010000001FFFFFFFE10B50400324B9842A3
:10052C0015D0324B984212D0314B98420FD0314BF0
:10053C0098420CD0304B984209D0304B984206D0A0
:10054C002F4B984203D084212E4801F0E7F9236801
:10055C002D4A13402360002323606360A360E36093
:10056C00214B9C4218D0214B9C421BD0204B9C42CF
:10057C001ED0204B9C4222D01F4B9C4226D01F4B9E
:10058C009C422AD01E4B9C420BD1204A5168F0232E
:10059C001B050B43536004E01C4A53680F210B43AB
:1005AC00536010BD194A5368F0210B435360F8E7B0
:1005BC00164A5168F0231B010B435360F1E7134AB1
:1005CC005168F0231B020B435360EAE70F4A516852
:1005DC00F0231B030B435360E3E70C4A5168F023F1
:1005EC001B040B435360DCE7080002401C00024074
:1005FC003000024044000240580002406C000240AF
:10060C00800002408C4D0008FEFF000000000240FC
:10061C0070B505000C00524B984215D0514B9842C6
:10062C0012D0514B98420FD0504B98420CD0504B9B
:10063C00984209D04F4B984206D04F4B984203D06A
:10064C00CC214E4801F06AF9A368002B01D0102B85
:10065C005ED1E368013B4A4A93425ED82369002B82
:10066C0001D0402B5ED16369002B01D0802B5ED171
:10067C00A369002B07D080225200934203D0013291
:10068C00FF32934258D1E369002B07D08022D2006D
:10069C00934203D080221201934252D1236A002B41
:1006AC0001D0202B52D1636AC0229201934209D00F
:1006BC0080229201934205D080225201934201D0B4
:1006CC00002B48D1A36A002B07D08022D201934281
:1006DC0003D0D521294801F021F92B68294A1A4069
:1006EC00A368216A0B4321690B4361690B43A16920
:1006FC000B43E1690B43616A0B43A16A0B43134340
:10070C002B60E3686B602368AB606368EB6070BD63
:10071C00CD211A4801F002F99BE7CE21174801F0D0
:10072C00FDF89BE7CF21154801F0F8F89BE7D021A5
:10073C00124801F0F3F89BE7D121104801F0EEF8D4
:10074C00A1E7D2210D4801F0E9F8A7E7D3210B4826
:10075C0001F0E4F8A7E7D421084801F0DFF8B1E78D
:10076C00080002401C0002403000024044000240DD
:10077C00580002406C000240800002408C4D000882
:10078C00FEFF00000F80FFFF0023036043608360C7
:10079C00C360036143618361C3610362436283622B
:1007AC007047000070B504000D00174B984216D02E
:1007BC00164B984213D0164B984210D0154B9842BA
:1007CC000DD0154B98420AD0144B984207D0144BBD
:1007DC00984204D02A21FF31124801F09FF8012DD4
:1007EC0006D8002D0AD123680F4A1340236070BD30
:1007FC00952149000B4801F091F8F2E7236801229A
:10080C0013432360F3E7C046080002401C0002407B
:10081C003000024044000240580002406C0002408C
:10082C00800002408C4D0008FEFF000010B5040053
:10083C00431E012B60D904285ED008285CD01028F8
:10084C005AD0202858D0402856D0802854D0802305
:10085C005B00984250D00133FF3398424CD0802338
:10086C00DB00984248D080231B01984244D080235F
:10087C005B01984240D080239B0198423CD080235E
:10088C00DB01984238D080231B02984234D080235D
:10089C005B02984230D080239B0298422CD080235C
:1008AC00DB02984228D080231B03984224D080235B
:1008BC005B03984220D080239B0398421CD080235A
:1008CC00DB03984218D080231B04984214D0802359
:1008DC005B04984210D080239B0498420CD0802358
:1008EC00DB04984208D080231B05984204D0802159
:1008FC008900054801F012F8044B1B681C4201D119
:10090C00002010BD0120FCE78C4D000800000240C7
:10091C0010B50400030F01D1002804D18F218900E8
:10092C00024800F0FBFF024B5C6010BD8C4D0008D0
:10093C000000024070B505000E009023DB059842C4
:10094C0012D03E4B98420FD03D4B98420CD03D4BB1
:10095C00984209D03C4B984206D03C4B984203D06D
:10096C00B4213B4800F0DAFF3368002B07D0337911
:10097C00032B09D8F379022B0BD8002441E0B521C5
:10098C00334800F0CBFFF2E7B621314800F0C6FF48
:10099C00F0E7B7212E4800F0C1FFEEE7AB6861002D
:1009AC0003228A409343AB60AB6872798A4013434D
:1009BC00AB60B379012B3BD8AB882104090C012225
:1009CC008A409343AB80A888B2798A4093B20343A0
:1009DC00AB802A68610003231800884082432A6098
:1009EC002A683079884002432A60EA682004C00BE8
:1009FC0083409A43EA60EB68F2798A401343EB60D8
:100A0C0001340F2C19D80123A34032681A409342A9
:100A1C00F6D13379013BDBB2012BDAD87379012B98
:100A2C00BCD9032BBAD0C721094800F077FFB5E732
:100A3C00CE21074800F072FFBEE770BD00040048ED
:100A4C0000080048000C0048001000480014004842
:100A5C00BC4D0008044B036000230371012242715A
:100A6C008371C3717047C046FFFF000070B504006E
:100A7C000D009023DB05984213D0284B984210D0E0
:100A8C00274B98420DD0274B98420AD0264B9842C0
:100A9C0007D0264B984204D09B214900244800F0F3
:100AAC003DFF6B1E9BB2012B2BD9042D29D0082D99
:100ABC0027D0102D25D0202D23D0402D21D0802DB6
:100ACC001FD080235B009D421BD00133FF339D421E
:100ADC0017D08023DB009D4213D080231B019D4245
:100AEC000FD080235B019D420BD080239B019D4244
:100AFC0007D08023DB019D4203D080231B029D4243
:100B0C0004D1238A2B4207D1002070BD3821FF313C
:100B1C00074800F003FFF4E70120F6E70004004863
:100B2C0000080048000C0048001000480014004861
:100B3C00BC4D000870B504000D009023DB059842F5
:100B4C0013D00F4B984210D00E4B98420DD00E4B39
:100B5C0098420AD00D4B984207D00D4B984204D0C6
:100B6C00C82149000B4800F0D9FE002D01D0A56129
:100B7C0070BD9221FF31074800F0D0FEF7E7C04668
:100B8C000004004800080048000C00480010004811
:100B9C0000140048BC4D000870B504000D009023F3
:100BAC00DB05984213D00F4B984210D00E4B984255
:100BBC000DD00E4B98420AD00D4B984207D00D4BDE
:100BCC00984204D0A621FF310B4800F0A7FE002D5F
:100BDC0001D0258570BDD3214900074800F09EFE49
:100BEC00F7E7C0460004004800080048000C004825
:100BFC000010004800140048BC4D000870B50500FA
:100C0C000C0016009023DB05984212D0184B98422A
:100C1C000FD0184B98420CD0174B984209D0174B59
:100C2C00984206D0164B984203D01649164800F04D
:100C3C0075FE0F2C12D8072E15D8072323409B00C6
:100C4C009E40E4082100083189004A590F20984041
:100C5C0082434A514B591E434E5170BD0B490A48B1
:100C6C0000F05CFEE7E70A49074800F057FEE4E7AE
:100C7C000004004800080048000C00480010004820
:100C8C00001400480D020000BC4D00080E020000CC
:100C9C000F02000070B504008378012B0ED8637826
:100CAC00032B10D8A378002B12D123781F221A40C3
:100CBC0001239340134980228B5070BD522112485E
:100CCC0000F02CFEEBE753210F4800F027FEE9E77C
:100CDC0023789A080B48C03292001558032119400A
:100CEC00C900FF231E008E40B5436678B601334021
:100CFC008B402B43135023781F221A40012393401F
:100D0C000360DAE700E100E0F04D0008F8B50400FC
:100D1C00614B58680C231840042845D007D9082883
:100D2C0046D00C2862D15D4B2360002003E00028E4
:100D3C005CD15B4B2360584A516809090F230B4067
:100D4C00584FFB5CDBB226683100D9400B00616068
:100D5C0055682D0A07212940795CC9B2CB40A360A4
:100D6C00126BD20546D4504AE2604B4A126B5206C3
:100D7C004AD44E4A2261484A126BD20648D4484A99
:100D8C006261454A126B920744D1A361424A116BCE
:100D9C00C0229202114258D1E3613F4B1B6B1B06E0
:100DAC0000D475E02062F8BD3D4B23600020C2E703
:100DBC00394B5D685A68C0235B02AD0C0F200540AF
:100DCC0002351A4208D16B015B1B9801C01AC00096
:100DDC00451928022060AEE72F4BDB6A0F21194022
:100DEC0001312F4803F0D2FA6843F3E72C4B236010
:100DFC000020A0E7284A5268520402D45A08E26044
:100E0C00B3E79A08E260B0E7802212022261B2E7EF
:100E1C006661B6E7204A116B03220A40012A0ED004
:100E2C001D4A116B03220A40022A0AD01A4A116B7E
:100E3C0003220A40032AA9D1194AA261A6E7A66196
:100E4C00A4E780221202A261A0E7134B1B6BC02205
:100E5C009202134080225202934213D00E4B1B6B12
:100E6C00C022920213408022920293420CD00A4B71
:100E7C001B6BC02292021340934200D08DE7084BAB
:100E8C00E3618AE7E66188E780231B02E36184E77C
:100E9C00024B236287E7C04600100240006CDC0264
:100EAC0000127A0004000020809FD5001280000000
:100EBC0070B504000D000E4B184201D1002803D16F
:100ECC000C490D4800F02AFD012D06D8002D09D142
:100EDC000A4A5369A343536170BD0949064800F09F
:100EEC001DFDF3E7054A53691C435461F4E7C04602
:100EFC00AAFF81FE36050000244E000800100240B7
:100F0C003705000070B504000D000E4B184201D1DE
:100F1C00002803D10C490D4800F000FD012D06D826
:100F2C00002D09D10A4A9369A343936170BD094905
:100F3C00064800F0F3FCF3E7054A93691C439461FF
:100F4C00F4E7C046FEA5B8FF5A050000244E000881
:100F5C00001002405B05000070B504000D000E4B44
:100F6C00184201D1002803D10C490D4800F0D6FCE1
:100F7C00012D06D8002D0AD10A4AD369A343D361A7
:100F8C0070BDB121C900064800F0C8FCF2E7054A63
:100F9C00D3691C43D461F3E7CCB6118587050000F7
:100FAC00244E00080010024070B504000D000E4BDA
:100FBC00184201D1002803D10C490D4800F0AEFCB9
:100FCC00012D06D8002D0AD10A4AD368A343D36059
:100FDC0070BDB921C900064800F0A0FCF2E7054A33
:100FEC00D3681C43D460F3E7FEA5B8FFC705000027
:100FFC00244E000800100240002303804380E022AE
:10100C00D2008280C380038143818381C3810733F3
:10101C0003827047F0B5C64600B505000C006D4B59
:10102C00984206D06C4B984203D0EB216B4800F0F1
:10103C0075FC2388002B0CD08022D200934208D060
:10104C0080221202934204D0C0221202934200D09A
:10105C0092E0638882225200934202D0002B00D08F
:10106C008FE0A388C0229200934230D00132FF322D
:10107C0093422CD00132FF32934228D00132FF32FE
:10108C00934224D00132FF32934220D00132FF32FE
:10109C0093421CD00132FF32934218D00132FF32FE
:1010AC00934214D00132FF32934210D00132FF32FE
:1010BC0093420CD00132FF32934208D00132FF32FE
:1010CC00934204D00132FF32934200D05EE0E388B9
:1010DC00002B02D0022B00D05DE02389012B00D91C
:1010EC005EE0638980229200934201D0002B5CD198
:1010FC00A389002B0DD0082B0BD0102B09D0182B4B
:10110C0007D0202B05D0282B03D0302B01D0382B27
:10111C0050D1E389002B01D0802B50D1238A002B96
:10112C0052D02A88C1239B011A402788E3899C4608
:10113C00E68820896189A389984663461F433E430C
:10114C003043014343460B4313432B80AB88244A63
:10115C001A40A3881343AB80238A2B822B8804224A
:10116C0093431A00638813432B80AB8B1D4A1340A7
:10117C00AB8304BC9046F0BDEE21184800F0CEFBCA
:10118C0067E7EF21154800F0C9FB6AE7F021134827
:10119C0000F0C4FB9BE7F121104800F0BFFB9CE77B
:1011AC00F2210E4800F0BAFB9BE7F3210B4800F04C
:1011BC00B5FB9DE7F421094800F0B0FBA9E7F52148
:1011CC00064800F0ABFBA9E7F621044800F0A6FBAB
:1011DC00A7E7C0460030014000380040544E0008DC
:1011EC00FFF0FFFFFFF7FFFF70B504000D000F4B82
:1011FC00984207D00E4B984204D0C821FF310D48BD
:10120C0000F08CFB012D06D8002D0AD1238840223A
:10121C009343238070BDE4214900064800F07EFB17
:10122C00F2E72388402213432380F3E70030014088
:10123C0000380040544E000870B504000D00064BF9
:10124C00984206D0054B984203D00549054800F05A
:10125C0065FB257370BDC04600300140003800406E
:10126C00EB020000544E000870B505000C00154B45
:10127C00984206D0144B984203D01449144800F0FD
:10128C004DFB802C11D0402C0FD0202C0DD0102CCD
:10129C000BD0022C09D0012C07D080235B009C4280
:1012AC0003D0042C01D0082C04D12B89234206D165
:1012BC00002070BD0749064800F030FBF5E701201F
:1012CC00F7E7C0460030014000380040DA04000067
:1012DC00544E0008DB040000F0B58DB004000D0086
:1012EC00604B98420CD0604B984209D05F4B9842AF
:1012FC0006D05F4B984203D0DC215E4800F00EFB19
:10130C002B68013B5C4A934200D981E06B68002B4F
:10131C0007D080225201934203D0584A934200D006
:10132C007BE0AB68002B08D080229201934204D062
:10133C00C0229201934200D074E0EB68002B08D0DD
:10134C008022D200934204D0C022D200934200D01B
:10135C006DE02B690C221900914301D1002B03D1B4
:10136C00E121444800F0DAFA6B69002B0BD08022A3
:10137C005200934207D00132FF32934203D0013224
:10138C00FF32934258D12368012293432360636850
:10139C003B4A1340AA68134363602368394A1A40D6
:1013AC006B68E9680B4329690B4313432360A368FB
:1013BC00354A13406A691343A36003A8FFF7A6FCE0
:1013CC00284B9C423DD0284B9C423CD0059E236828
:1013DC001B043AD576002B6801931900300002F0FB
:1013EC00D5FF07000199300003F056F82B685B0815
:1013FC008B4200D8013723681B0405D57A080723D4
:10140C001340224A17401F43BBB2A3810DB0F0BD5D
:10141C00DD21184800F082FA78E7DE21154800F04B
:10142C007DFA7EE7DF21134800F078FA85E7E021AA
:10143C00104800F073FA8CE7E2210E4800F06EFAC7
:10144C00A1E7099EC3E70A9EC1E72B680193190027
:10145C00300002F09BFF07000199300003F01CF8EC
:10146C00C4E7C0460038014000440040004800403A
:10147C00004C0040844E00087F8D5B000010001073
:10148C00FFCFFFFFF3E9FFFFFFFCFFFFF0FF0000C2
:10149C0096239B010360002343608360C3600C228E
:1014AC00026143617047000070B504000D00124BDF
:1014BC0098420DD0114B98420AD0114B984207D04C
:1014CC00104B984204D0C82149000F4800F026FA6E
:1014DC00012D06D8002D0AD12368012293432360E5
:1014EC0070BD9221FF31084800F018FAF2E723682A
:1014FC00012213432360F3E700380140004400400D
:10150C0000480040004C0040844E000870B50500B7
:10151C000C000E4B98420CD00D4B984209D00D4B41
:10152C00984206D00C4B984203D00C490C4800F062
:10153C00F5F90C4B9C4203D8E405E40D2C8570BDE9
:10154C000949074800F0EAF9F6E7C04600380140BF
:10155C000044004000480040004C0040950300004F
:10156C00844E0008FF0100009603000010B5040033
:10157C00094B98420CD0094B984209D0084B984221
:10158C0006D0084B984203D00749084800F0C6F92A
:10159C00A08CC005C00D10BD0038014000440040B7
:1015AC0000480040004C0040A6030000844E000898
:1015BC0070B505000C0016002D4B98420CD02D4B2D
:1015CC00984209D02C4B984206D02C4B984203D011
:1015DC002B492C4800F0A2F984235B009C4221D0BB
:1015EC00294B9C421ED0294B9C421BD0284B9C4221
:1015FC0018D0284B9C4215D0274B9C4212D0274B1D
:10160C009C420FD0C0239B009C420BD0244B9C428D
:10161C0008D0244B9C4205D0234B9C4202D0234B38
:10162C009C4212D1012E15D82900A3B21B0AFF220D
:10163C001440FE3AA240022B11D0032B11D0002EE5
:10164C0011D10B6893430B6070BD19490D4800F024
:10165C0065F9E7E717490B4800F060F9E4E7291D45
:10166C00EDE70831EBE70B681A430A60ECE7C0467C
:10167C00003801400044004000480040004C00404D
:10168C0005070000844E000807010700060106004C
:10169C000501050004010400060208000A03090004
:1016AC001A010B001B010C000E0111001603140093
:1016BC00060700000707000070B505000C00314B51
:1016CC0098420CD0304B984209D0304B984206D0FF
:1016DC002F4B984203D02F492F4800F01FF9012CB3
:1016EC0049D0802C47D0402C45D0202C43D0102CF6
:1016FC0041D080235B009C423DD00133FF339C42A0
:10170C0039D0082C37D0042C35D0022C33D0802380
:10171C00DB009C422FD080231B019C422BD08023CA
:10172C005B019C4227D08023DB019C4223D0802389
:10173C001B029C421FD080235B029C421BD0802347
:10174C009B029C4217D08023DB029C4213D0802347
:10175C001B039C420FD080235B039C420BD0802345
:10176C009B039C4207D08023DB039C4203D00B4994
:10177C00094800F0D3F8EB691C4201D1002070BD80
:10178C000120FCE7003801400044004000480040C4
:10179C00004C004093070000844E000894070000A2
:1017AC0070B505000C00304B98420CD02F4B984272
:1017BC0009D02F4B984206D02E4B984203D02E497D
:1017CC002E4800F0ABF884235B009C4226D02C4BB7
:1017DC009C4223D02B4B9C4220D02B4B9C421DD0A7
:1017EC002A4B9C421AD02A4B9C4217D0294B9C4224
:1017FC0014D0294B9C4211D0284B9C420ED0284B24
:10180C009C420BD0274B9C4208D0274B9C4205D0C6
:10181C00264B9C4202D0264B9C4216D1A2B2120AF5
:10182C00FF21214001238B40012A13D0022A14D01E
:10183C00AA681340240C0122A240E9690A40002B3B
:10184C000ED0002A0ED100200BE01A490B4800F0F4
:10185C0065F8E3E72A681340ECE76A681340E9E7A8
:10186C00002070BD0120FCE700380140004400401E
:10187C0000480040004C0040E6070000844E000881
:10188C00070107000601060005010500040104001C
:10189C00060208000A03090000030300000302000B
:1018AC00000301001A010B001B010C000E011100BA
:1018BC0016031400E7070000FEE710B50120FFF740
:1018CC00FBFF000010B503000D4A1268002A0BD074
:1018DC000B4A1068033303229343C318094A9342FB
:1018EC0006D8074A136010BD054A07491160EFE797
:1018FC0002F0D8FD0C23036001204042F3E7C04600
:10190C0090000020001C0020B80C00200123036074
:10191C00014B0B607047C0461400002010B5FFF758
:10192C00CCFF10B500F05CF810BD000082B00023B5
:10193C0001930093274A116880235B020B431360C9
:10194C00244B1B688022920213400093019B0133AD
:10195C000193009B002B04D1019AA023DB019A4236
:10196C00EED11C4B1B689B0306D501230093009BF7
:10197C00012B04D002B0704700230093F7E7164BFD
:10198C0011221A60134B5A685A605A685A605A6886
:10199C0012490A405A605968882252030A435A6015
:1019AC001968802252040A431A600A4B1B689B0177
:1019BC00FBD5084B5A6803218A435A605A6801398F
:1019CC000A435A60034B5A680C231340082BF9D175
:1019DC00D0E7C0460010024000200240FF7FC0FF4D
:1019EC0010B5124B1A6801210A431A605A68104844
:1019FC0002405A601A680F4802401A601A680E4872
:101A0C0002401A605A680D4802405A60DA6A0F2088
:101A1C008243DA621A6B0A4802401A635A6B8A4391
:101A2C005A6300229A60FFF781FF10BD001002403C
:101A3C000CB8FF08FFFFF6FEFFFFFBFFFFFFC0FF28
:101A4C00ACFEFFFF70B504000D0000230370733370
:101A5C008360080002F040FE0130606002F028FD57
:101A6C00061E05D0290002F02FFE2661200070BD55
:101A7C0003232370FAE70023037069338360653B0B
:101A8C004360016170470023037069338360653BD9
:101A9C004360016170470023037066338360623BCF
:101AAC0043600161704710B582B06B4600915A607B
:101ABC0000220270743282606C3A42600200103272
:101ACC0012CB12C202B010BD00210170083141606E
:101ADC005C318160026143617047F0B583B00500F1
:101AEC000C0016000023037062338360131D4360E7
:101AFC00009201A96B46DA1C0423581E002B06DD4C
:101B0C000023D3560B7003000131013AF5E7019B1A
:101B1C0000936868002804DC00232B61280003B0C4
:101B2C00F0BD02F0C5FC071E0AD00422694602F083
:101B3C00D3FC381D3200210002F0CEFC2F61EDE702
:101B4C0003232B70EAE710B504004368002B04DD77
:101B5C008368732B03D0622B05D0200010BD006965
:101B6C0002F0B0FCF9E7006902F0ACFCF5E70223E7
:101B7C00037081600023436070478368692B01D038
:101B8C00002070470069FCE710B504000800A3684A
:101B9C00622B01D0002010BD6368934201DD002050
:101BAC00F9E71A00216902F097FC6068F3E730B599
:101BBC00431C01228256212A04D001256842684127
:101BCC00C0B20BE0831C0025F8E700240C579442AC
:101BDC0003DB02229A56944210DD033300229A56FC
:101BEC005D2A0ED0002A0CD001241C572D2CECD0D1
:101BFC0000240C57944203D00133EFE7280000E097
:101C0C00280030BD70B50D00013007E0261A3200F7
:101C1C00290002F068FD002818D0601C0023C35670
:101C2C007D2B12D0002B13D02F2B0CD004000023B3
:101C3C00E3567D2BEAD0002BE8D02F2BE6D02C2BB3
:101C4C00E4D00134F3E7002600E00026300070BD3C
:101C5C000026FBE710B50023C3565D2B12D006DC23
:101C6C003F2B23D05B2B06D1FFF7A1FF10BD7B2BA5
:101C7C000FD07D2B11D000228A56934214D0002015
:101C8C00F4E701380023C3565B2BFAD1FFF78FFF23
:101C9C00ECE7FFF7B7FFE9E701380023C3567B2BCE
:101CAC00FAD1FFF7AFFFE1E70120DFE70120DDE725
:101CBC0070B504000D000023CB562F2B01D0002B48
:101CCC0011D10023E3562F2B32D0002B32D02A2BEC
:101CDC0001D000202FE00123E3562F2B2CD0002B1A
:101CEC002CD0002027E0002686572A2E0CD0FFF798
:101CFC00B1FF00281FD05B2E13D07B2E11D0691C96
:101D0C00601CFFF7D5FF16E00130FFF7D1FF00286C
:101D1C0001D001200FE0691C2000FFF7C9FF0AE089
:101D2C0001340023E3565D2BE9D07D2BF8D1E6E797
:101D3C00012000E0012070BD0120FCE70120FAE742
:101D4C00F0B5CE46474680B583B0019088460B78F7
:101D5C005BB2002B00D17EE00C0000E001340023CC
:101D6C00E3562F2B0FD0002BF8D1019D002700E05C
:101D7C0001350023EB562F2B08D0002B06D02A2B35
:101D8C00F6D10137F4E7019D0027F2E7013D013C54
:101D9C00012F10D0022F26D041460198FFF788FF63
:101DAC00070059E0013D0023EB565B2B01D07B2B48
:101DBC00F8D1013D013C0026AE572A2E4CD0210013
:101DCC002800FFF747FF00284CD05D2EEBD07D2E6E
:101DDC00EFD1E8E7013D0023EB565B2B01D07B2BC9
:101DEC00F8D1013D013C0026AE572A2E0AD0210025
:101DFC002800FFF72FFF071E2ED05D2EEBD07D2E77
:101E0C00EFD1E8E7631C99461AE0013C0023E35646
:101E1C005B2B01D07B2BF8D1013C013E0027E7570F
:101E2C002A2F0AD031002000FFF714FF002804D01D
:101E3C005D2FEBD07D2FEFD1E8E7019B9C4213D0B7
:101E4C00C14506D96C1E01235B429C46E1444E46BB
:101E5C00E4E7002700E00027380003B00CBC9046F4
:101E6C009946F0BD0700F7E70127F5E7F0B5C64640
:101E7C0000B582B0009001911600984602F01AFC51
:101E8C00002806D00023336042461360019D009C5D
:101E9C0033E0009802F020FC3060019802F01CFC4A
:101EAC0043461860032002B004BC9046F0BD2900E4
:101EBC002000FFF745FF002801D1F4E7013400238F
:101ECC00E3562F2B03D0002BF8D100E00135002373
:101EDC00EB562F2B11D0002BF8D10EE00134002340
:101EEC00E3562F2B03D0002BF8D100E00135002353
:101EFC00EB562F2B01D0002BF8D10023EB56002BE7
:101F0C0024D00027E757002F20D02A2FCFD02A2B00
:101F1C00E5D029002000FFF79DFE0028C3D05B2FE1
:101F2C0005D07B2F0BD001340135E6E701340023BB
:101F3C00E3565D2BFAD101340135DEE70134002381
:101F4C00E3567D2BFAD101342D18D6E7009BE71A06
:101F5C003760019BEE1A43461E600023EB56002BA4
:101F6C0008D000200023E356002B00D09BE702335F
:101F7C00184398E70120F5E783688B4203DD43683B
:101F8C00890058587047042303730020FAE700B502
:101F9C0083B00068801801AB6A46FFF767FF03380F
:101FAC0043425841C0B203B000BD70B505001600E5
:101FBC001A00FFF7ECFF041E01D02800B0472000E8
:101FCC0070BD70B504000D00006802F07BFA2800AB
:101FDC0002F082FB013002F06BFA061E04D02900DD
:101FEC0002F072FB266070BD032323730023236071
:101FFC00F9E770B50600057B6B1E9D41EDB2002420
:10200C00B368A34209DD21003000FFF7B5FF037868
:10201C005A1E93411D430134F2E7280070BD70B580
:10202C000400FFF7A9FF05002000FFF7E2FF0028DE
:10203C0001D0002070BD2800FFF79FFDFAE7F8B52E
:10204C00040017001E00FFF797FF05002000FFF7A4
:10205C00D0FF002808D16A68B24200DD3200390096
:10206C002800FFF791FDF8BD0020FCE770B50400D7
:10207C00FFF782FF05002000FFF7BBFF002802D10D
:10208C000820285670BD0020FCE770B50400150030
:10209C00FFF772FF06002000FFF7ABFF002805D109
:1020AC00B068401B43425841C0B270BD0020FCE7F1
:1020BC0010B56922FFF7E9FF10BD10B56222FFF7DA
:1020CC00E4FF10BDF0B585B006000D00080000F06F
:1020DC004FFC3000FFF78DFF002801D005B0F0BD9C
:1020EC003768380002F0F8FA421C032484433900A4
:1020FC00280000F050FC671E002C05D000212800A1
:10210C0000F042FC3C00F6E72C21280000F03CFCDF
:10211C00B368A34209DD21003000FFF7A7FFC1B26D
:10212C00280000F031FC0134F2E703249C4300D179
:10213C000434671E002C2AD00021280000F024FC57
:10214C003C00F6E77A683969280000F024FC7A68CC
:10215C005242032313405F1E002B17D0002128008E
:10216C0000F012FC3B00F6E7173702AA5C3B591E45
:10217C00002B06DD0023FB5613700B000132013FD0
:10218C00F5E7082202A9280000F005FC0134B36829
:10219C00A34256DD21003000FFF7EEFE07008368F6
:1021AC00732BCFD0622BCDD0642BDDD0742B11D000
:1021BC00542BEBD0462BE9D00100133102AA042397
:1021CC00581E002B37DD0023CB5613700300013251
:1021DC000139F5E701001031082202A802F07CF960
:1021EC0001A90B226A440423581E002B06DD002390
:1021FC00D3560B7003000131013AF5E7019B0093B4
:10220C0004226946280000F0C6FB01A90F226A448B
:10221C000423581E002B06DD0023D3560B7003003D
:10222C000131013AF5E7019B00930422694628002D
:10223C0000F0B1FBAAE77A6802A9280000F0ABFB1A
:10224C00A4E7280000F099FB48E770B504004DB2F4
:10225C00182002F083F806002900FFF788FC337879
:10226C00032B0FD0A368591C8900606802F0E6F9B3
:10227C00002809D06060A3689B00C650A368013396
:10228C00A36000E0237370BD03232373FBE770B5D9
:10229C0004000D008369002B08DD43695A1C426160
:1022AC000269D1548369013B836170BD416911316D
:1022BC00006902F0C3F92061002806D063695A1C3A
:1022CC006261C5541023A361EFE703232373ECE78A
:1022DC0010B504001021006902F0B0F9206100284B
:1022EC0004D01023A3610023636110BD0323237367
:1022FC0000232361F7E770B50400002505608560B5
:10230C0005734560056145618561FFF7E1FF657304
:10231C0070BD70B504000D00FFF7EDFF2900200023
:10232C00FFF74FFE200070BD10B50400FFF7E3FF70
:10233C0002232373200010BD70B505000023037326
:10234C00002400E00134AB68A3420BDD210028001F
:10235C00FFF712FE061EF5D0FFF7F5FB300001F07B
:10236C00F9FFEFE7686802F0ADF800236B60AB6033
:10237C006B732800FFF7ACFF70BD10B5040000684C
:10238C0002F0A0F82000FFF7D7FF206902F09AF8BE
:10239C00200010BD10B504000169FFF712FE0023E8
:1023AC0023732000FFF794FF10BD0000F0B5C64664
:1023BC0000B58CB007000D000024BB68A34200DC04
:1023CC00B5E121003800FFF7D7FD0378022B01D0CF
:1023DC000134F2E78368623B122B00D9A7E19B0022
:1023EC00C74AD3589F467D69042D00D09FE1042233
:1023FC00396904A802F070F806AA0B2302A98C46CE
:10240C006344691E002D06DD0020185610700D0067
:10241C000132013BF5E7069DBB689C4206DB20D0F0
:10242C0004233B733800FFF753FF80E12100380091
:10243C00FFF7A2FD061E04D0FFF785FB300001F06C
:10244C0089FF182001F08AFF06002900FFF713FB13
:10245C003378032B03D0A4007B681E51E2E73B7357
:10246C00E0E7182001F07AFF04002900FFF703FBD6
:10247C002378032B01D13B73D4E7BB68591C89002B
:10248C00786802F0DBF8002802D103233B73C9E71C
:10249C007860BB689B00C450BB680133BB60C1E76C
:1024AC007D69042D00D042E10422396904A802F0B0
:1024BC0013F806AA0B2302A98C466344691E002D4F
:1024CC0006DD0020185610700D000132013BF5E7B7
:1024DC00069DBB689C4206DB20D004233B7338006E
:1024EC00FFF7F6FE23E121003800FFF745FD061E3D
:1024FC0004D0FFF728FB300001F02CFF182001F06E
:10250C002DFF0600291CFFF7C6FA3378032B03D0E6
:10251C00A4007B681E51E2E73B73E0E7182001F052
:10252C001DFF0400291CFFF7B6FA2378032B01D1F9
:10253C003B73D4E7BB68591C8900786802F07EF8BD
:10254C00002802D103233B73C9E77860BB689B006A
:10255C00C450BB680133BB60C1E77D69082D00D056
:10256C00E5E00822396904A801F0B6FF06AA0F239A
:10257C0002A98C466344691E002D06DD0020185606
:10258C0010700D000132013BF5E7069D079EBB68FC
:10259C009C4206DB24D004233B733800FFF798FEE3
:1025AC00C5E021003800FFF7E7FC002805D00190BA
:1025BC00FFF7C9FA019801F0CDFE182001F0CEFE0C
:1025CC0080462A003300FFF77FFA43461B78032B23
:1025DC0004D0A4007B6842461A51DEE73B73DCE76B
:1025EC00182001F0BBFE04002A003300FFF76CFA40
:1025FC002378032B01D13B73CFE7BB68591C8900AF
:10260C00786802F01BF8002802D103233B73C4E75F
:10261C007860BB689B00C450BB680133BB60BCE7EF
:10262C007B69082B00D082E00822396902A801F0EE
:10263C0053FF06A902ABDA1C0423581E002B06DD3F
:10264C000023D3560B7003000131013AF5E7069BCA
:10265C00029306A902ABDA1D0423581E002B06DDDB
:10266C000023D3560B7003000131013AF5E7069BAA
:10267C000393082202A904A801F02EFFBB689C4218
:10268C0006DB26D004233B733800FFF721FE4EE017
:10269C0021003800FFF770FC051E04D0FFF753FA39
:1026AC00280001F057FE082204A908A801F014FF25
:1026BC00182001F053FE05000899099AFFF7F3F969
:1026CC002B78032B03D0A4007B681D51DCE73B73F4
:1026DC00DAE7082204A906A801F0FEFE082206A9E2
:1026EC000AA801F0F9FE182001F038FE04000A993E
:1026FC000B9AFFF7D8F92378032B03D13B73C3E76D
:10270C00B84E0008BB68591C8900786801F096FF28
:10271C00002802D103233B73B6E77860BB689B00AB
:10272C00C450BB680133BB60AEE7002D03D00CB0C6
:10273C0004BC9046F0BD3D69BB689C4208DB22D0CE
:10274C0004233B733800FFF7C3FD06237B73EEE7CE
:10275C0021003800FFF710FC061E04D0FFF7F3F938
:10276C00300001F0F7FD182001F0F8FD06002900FB
:10277C00FFF768F93378032B03D0A4007B681E5154
:10278C00E0E73B73DEE7182001F0E8FD04002900C8
:10279C00FFF758F92378032B01D13B73D2E7BB68C1
:1027AC00591C8900786801F049FF002802D10323E5
:1027BC003B73C7E77860BB689B00C450BB680133B0
:1027CC00BB60BFE77B69042BB1DD0422396904A827
:1027DC0001F082FE06A90B2202AB9C466244042344
:1027EC00581E002B06DD0023D3560B70030001315D
:1027FC00013AF5E7069D2B1D7A699A4297D13B6900
:10280C0004330193BB689C4208DB23D004233B7345
:10281C003800FFF75DFD06237B7388E72100380045
:10282C00FFF7AAFB061E04D0FFF78DF9300001F06C
:10283C0091FD182001F092FD06002A000199FFF786
:10284C004CF93378032B03D0A4007B681E51DFE7CF
:10285C003B73DDE7182001F081FD04002A0001998B
:10286C00FFF73BF92378032B0FD0BB68591C890069
:10287C00786801F0E3FE002809D07860BB689B0003
:10288C00C450BB680133BB60C2E73B73C0E7032392
:10289C003B73BDE770B504000D00FFF7F8FC637BDC
:1028AC00062B25D89B002A4AD3589F462F2D1FD183
:1028BC00012363731CE0002D1AD12000FFF76AFD81
:1028CC000223637314E02C2D12D1032363732000B5
:1028DC00FFF7FEFC0CE0002D0BD104236373A26800
:1028EC000323934300D10433D31862699A4205D071
:1028FC0070BD29002000FFF7A8FCF0E72000FFF7CF
:10290C00E7FC05236373F3E729002000FFF74EFD76
:10291C00EEE7A3685D1E002DEADB29002000FFF71F
:10292C002BFB0378002B01D0013DF4E742685242A7
:10293C000333134008D062699A42D9D12000FFF7C3
:10294C00C7FC05236373D3E705336373D0E7C04635
:10295C00044F000870B50500541E002A07D04E1C09
:10296C0009782800FFF796FF22003100F4E770BDCC
:10297C0080235B000022C254704780235B00C25C42
:10298C000223FF33C254704780225200835CC1542F
:10299C0001338354704770B50500541E002A07D0CC
:1029AC004E1C09782800FFF7EFFF22003100F4E7F6
:1029BC0070BD0000F0B583B080200121C002FEF78D
:1029CC0077FA6846FEF746F8802636010096012411
:1029DC006B461C7100259D7103275F71DD71694683
:1029EC001148FDF7A7FF31000F48FEF7D5F8B023CB
:1029FC001B0100936B461C719D715F71DD71694603
:102A0C000948FDF797FF802149000748FEF7C4F8F5
:102A1C00802189000448FEF7BFF831000248FEF718
:102A2C00BBF803B0F0BDC04600040048012303709E
:102A3C000023044A83508122920083500932FF32D2
:102A4C00835070471405000010B5C02909D0DB294C
:102A5C0014D08122920083585C1C8450C0184170A1
:102A6C0010BD4531FF314258531C8218DB24547081
:102A7C005A1C4250C018DC234370F1E72A31FF3155
:102A8C004258531C8218DB2454705A1C4250C018F4
:102A9C00DD234370E4E7F0B5C3239B000024C4504E
:102AAC00002308E05C1C0C192578DC2D17D0247849
:102ABC00DD2C22D0023393422DDACD182C78DB2C6E
:102ACC00F0D0C326B6008459671C87512D780419A1
:102ADC00013EFF3EB446644425700133EBE7C32648
:102AEC00B60085596F1C87514519013EFF3EB4460F
:102AFC0065444D3EFF3E2E70D9E7C325AD004459C9
:102B0C00661C46510419013DFF3DAC466444323D00
:102B1C00FF3D2570CEE7C3239B00C2580433C2503F
:102B2C00F0BD000010B509E0C02920D01D4B0122DA
:102B3C00C250C5239B00C154022303701A4B1B883F
:102B4C001A4A12889A422BD05A1C1949C95CFF2385
:102B5C001340154A13800378012BE5D0022BEDD1DD
:102B6C00104BC258FF2A04D901230370E6E7037007
:102B7C00E4E7C0290BD0541C0A4BC4508218C5235F
:102B8C009B009C466244117002230370D6E701231C
:102B9C000370C5239B00C118FFF77DFF012000E0E7
:102BAC00002010BD14050000980700209607002097
:102BBC00B40B002081239B000122C250453BFF3BFC
:102BCC00437070478121890043585A1C4250C318E6
:102BDC004539FF39597082239B00C2507047F0B5BC
:102BEC0083B001900D001400FFF7E4FF661E002C6B
:102BFC0007D06F1C29780198FFF726FF34003D00A1
:102C0C00F4E70198FFF7DEFF03B0F0BD70B50500E7
:102C1C00FFF7E5FF002482239B00E858A04205D96A
:102C2C002B19587801F06AFB0134F4E770BD0000F1
:102C3C0010B50C4B18680C4901F0A8FB01380B4B74
:102C4C0098420DD80A4A50600A48036A1B021B0AB4
:102C5C00C02109060B430362002393600733136002
:102C6C0010BDC0461C00002010270000FFFFFF0015
:102C7C0010E000E000ED00E0014B00221A6070470C
:102C8C00B0070020014B18687047C046B007002001
:102C9C00034B1860024B1B68002BFBD17047C046DE
:102CAC00AC070020064B1B68002B03D0044A1368AA
:102CBC00013B1360034A1368013313607047C0462D
:102CCC00AC070020B007002010B5FFF7EBFF10BDDC
:102CDC0010B58CB001210120FEF7EAF8134C20004E
:102CEC00FDF71AFC01A8FDF74FFD114B0193114B99
:102CFC000293002303930622049205937A320692E0
:102D0C00803207928022D2000892202209928022DF
:102D1C0092010A920B9301A92000FDF779FC012185
:102D2C002000FDF73FFD0CB010BDC046080002406E
:102D3C004024014098000020F0B589B06846FDF7AA
:102D4C0089FE404C2000FDF74BFA802001218002C7
:102D5C00FEF7AEF880200121C002FEF7A9F8802012
:102D6C0001210003FEF7A4F88027BF0001213800E1
:102D7C00FEF7C8F83023009303256B461D7100261F
:102D8C00DE7169463048FDF7D5FD00956B461D7127
:102D9C00DE7169462D48FDF7CDFD122300936B467D
:102DAC001D71DE7190206946C005FDF7C3FD02ADB3
:102DBC002800FDF7A3FA08230293073B2B71AE60A2
:102DCC002E6103336B6129002000FDF725FA802169
:102DDC000522C9012000FDF7BBFA8021052209025A
:102DEC002000FDF7B5FA052210212000FDF7B0FAFE
:102DFC008021052249002000FDF7AAFA052239009E
:102E0C002000FDF7A5FA052202212000FDF7A0FA0B
:102E1C002000FDF7C5FA02212000FDF71DFB012162
:102E2C002000FDF7F5FA01212000FDF76FFA0121D2
:102E3C000448FDF729FB0028F9D00248FDF7D4FA25
:102E4C0009B0F0BD0024014000080048000400480F
:102E5C0070B50400802109015548FDF76BFE002177
:102E6C002000FFF725F9002800D170BD00212000BB
:102E7C00FFF7D5F8C3175B0FC01807240440E41AFA
:102E8C001ED0012C2DD0022C3CD0032C4BD0042C6A
:102E9C005AD0052C69D0062C78D0072CE5D180218E
:102EAC00434C89002000FDF745FE802109012000DC
:102EBC00FDF740FE802149002000FDF73BFED4E7E2
:102ECC0080213B4D89002800FDF766FE8021090119
:102EDC002800FDF761FE802149002800FDF75CFE0B
:102EEC00CFE78021324D89002800FDF755FE802167
:102EFC0009012800FDF750FE802149002800FDF74C
:102F0C0019FEC0E780212A4D89002800FDF744FEF8
:102F1C00802109012800FDF70DFE802149002800C1
:102F2C00FDF73AFEB1E78021214D89002800FDF71D
:102F3C0033FE802109012800FDF7FCFD80214900AA
:102F4C002800FDF7F7FDA2E78021194D8900280024
:102F5C00FDF7F0FD802109012800FDF71DFE802101
:102F6C0049002800FDF718FE93E78021104D8900D9
:102F7C002800FDF7DFFD802109012800FDF70CFE7C
:102F8C00802149002800FDF7D5FD84E78021084DFC
:102F9C0089002800FDF7CEFD802109012800FDF7EE
:102FAC00C9FD802149002800FDF7F6FD75E7C046F4
:102FBC000004004830B5A3B004000021FFF778F8F6
:102FCC00002814D1002501212000FFF776F80028F5
:102FDC0014D100235AB2002A17DB191DEA019A18E2
:102FEC0001A8445C0B498C540133DBB2F2E700219D
:102FFC002000FFF714F807250540E4E7842301AA15
:10300C0001212000FFF71BF8E3E7280001F0BAF8D4
:10301C0023B030BDB407002070B586B00023294A18
:10302C00934204DC284A0021D1540133F7E7FFF71F
:10303C0023FE0024622C17DCFFF724FE9623DB0012
:10304C009842F7D9FFF718FE651C22001F4901A80A
:10305C0001F010FB01001523012201A801F0D2F8A8
:10306C0001F060F82C00E5E70023164A934204DCDB
:10307C00154A0021D1540133F7E701AC144B25005C
:10308C0007CB07C51A001B682B609388AB8093791C
:10309C00AB71152301221221200001F0B3F80D4A67
:1030AC002100130045CB45C105CB05C11B880B8006
:1030BC002B2301221521200001F0A4F801F032F895
:1030CC00FEE7C046FF030000B4070020444F000891
:1030DC005C4F0008704F000810B5012800D010BDDF
:1030EC00034B9942FBD10348FFF7A0FCF7E7C0461E
:1030FC00FFFF00007C02002070B58AB0204903A8B5
:10310C00FFF707F9002403E003AB03221A73013421
:10311C00052C21D8A3001B4A9E58182001F01EF93B
:10312C0005003100FEF7A7FC2B78032BECD004989C
:10313C0005990131890001F081FA002808D004902A
:10314C00059B9B00C550059B019301330593DEE75E
:10315C0003AB03221A73DAE70B4C210003A8FEF72A
:10316C00B1FF0223FF33E25C21000848FFF74EFD5C
:10317C0003A8FFF7E1F803A8FFF7FFF80AB070BD4A
:10318C003C4F000860010020780100207C020020E8
:10319C00F0B583B0FFF79CFDFFF7CEFD6846FDF759
:1031AC0059FC802001210003FDF782FEE0235B0027
:1031BC00009301266B461E7100259D7103236A4600
:1031CC005371D571184C69462000FDF7B3FB4021B3
:1031DC002000FDF7E1FC80212000FDF7ABFC8021F5
:1031EC0049002000FDF7A6FC8027FF0201213800D2
:1031FC00FDF75EFEE0231B0200936B461D71DE7132
:10320C0069460A48FDF796FB01213800FDF750FE90
:10321C000F2300936B461D71DE7169462000FDF78C
:10322C0089FB03B0F0BDC04600080048000400480C
:10323C0010B500281ED001282BD0022838D0032826
:10324C0045D0042852D005285FD0062800D16BE069
:10325C00072800D177E0434C40212000FDF79CFC6F
:10326C0080212000FDF798FC802149002000FDF70B
:10327C0093FC0DE03B4C40212000FDF78DFC8021A0
:10328C002000FDF789FC802149002000FDF784FC1B
:10329C0010BD344C40212000FDF74CFC8021200057
:1032AC00FDF77AFC802149002000FDF775FCEFE763
:1032BC002C4C40212000FDF76FFC80212000FDF7F5
:1032CC0039FC802149002000FDF766FCE0E7254C25
:1032DC0040212000FDF72EFC80212000FDF72AFC68
:1032EC00802149002000FDF757FCD1E71D4C4021FF
:1032FC002000FDF751FC80212000FDF74DFC8021C2
:10330C0049002000FDF716FCC2E7164C40212000B6
:10331C00FDF710FC80212000FDF73EFC80214900C8
:10332C002000FDF707FCB3E70E4C40212000FDF711
:10333C0033FC80212000FDF7FDFB8021490020009B
:10334C00FDF7F8FBA4E7074C40212000FDF7F2FB4A
:10335C0080212000FDF7EEFB802149002000FDF7C5
:10336C00E9FB95E70008004810B52A4B1B68002BB9
:10337C000DD0284B1B68022B13D0264C2368581CED
:10338C00032101F089F82160234B186810BD224CF1
:10339C002068FFF74DFF23685A1C07231340236056
:1033AC00E7E708211D48FDF761FB002829D0002222
:1033BC001B4B1A7004211948FDF758FB002822D02A
:1033CC000021154B1B680133154AD15402211348B7
:1033DC00FDF74CFB002818D000210F4B1B6809335C
:1033EC000F4AD15401210D48FDF740FB00280ED0A7
:1033FC000021094B1B681133094AD1540023537621
:10340C00BBE76422D4E76421DBE76421E5E76421B0
:10341C00EFE7C046B8000020B400002000080048C8
:10342C004401002030B5204C206820490D78204BF9
:10343C001A224243D5544D7E9B185D768A7C5A7075
:10344C00CA7C9A700A7DDA704A7D1A718A7D5A712B
:10345C00CA7D9A710A7EDA714A7C1A728A7A5A7219
:10346C00CA7A9A720A7BDA724A7B1A738A7B5A730B
:10347C00CA7B9A730A7CDA734A7A1A748A785A74F9
:10348C00CA789A740A79DA744A791A758A795A75EB
:10349C00CA799A750A7ADA754A781A76431C032225
:1034AC001340236030BDC046BC0000204401002006
:1034BC00C000002030B58BB0FFF7B4FF002498E0BB
:1034CC00794903A8FEF725FF182000F047FF0500F7
:1034DC002100FEF7D0FA2B78032B10D00498059915
:1034EC000131890001F0AAF8002826D00490059B30
:1034FC009B00C550059B01930133059302E003AB80
:10350C0003221A73182000F029FF05006421FEF72E
:10351C00B2FA2B78032B14D0049805990131890049
:10352C0001F08CF8002825D00490059B9B00C55019
:10353C00059B01930133059306E003AB03221A7339
:10354C00E0E703AB03221A73584D290003A8FEF7DA
:10355C00B9FD0223FF33EA5C29005548FFF756FBFF
:10356C0003A8FEF7E9FE534B64221A5503A8FEF795
:10357C0004FF5AE003AB03221A73E5E703AB032203
:10358C001A73182000F0EAFE05000021FEF773FA0A
:10359C002B78032B14D0049805990131890001F084
:1035AC004DF8002879D00490059B9B00C550059BD5
:1035BC0001930133059306E003AB03221A73E0E792
:1035CC0003AB03221A73394D290003A8FEF77AFDC9
:1035DC000223FF33EA5C29003548FFF717FB03A8E9
:1035EC00FEF7AAFE334B00221A5503A8FEF7C5FEC0
:1035FC000134192C55D8304B1B5D002B15D02E4B9C
:10360C001B199B7E002B10D02B4B1B1934331B78B2
:10361C00002B0AD0284B1B194E331B78002B04D0DF
:10362C00244B1B5D002B00D14AE7234B1B5D002B69
:10363C00DED1214B1B199B7E002BD9D11E4B1B19A4
:10364C0034331B78002BD3D11B4B1B194E331B78F7
:10365C00002BCDD1174B1B5D002BC9D0124903A8F1
:10366C00FEF757FE182000F079FE05002100FEF74A
:10367C0002FA2B78032B81D004980599013189002B
:10368C0000F0DCFF002897D00490059B9B00C550F0
:10369C00059B01930133059373E703AB03221A7364
:1036AC0091E70BB030BDC046344F000878010020C4
:1036BC007C02002028010020C000002010B5022050
:1036CC00FDF7B4F8012800D010BD0130FDF720F94A
:1036DC00074A1188074B1961518819609188596004
:1036EC00D188D9601189996052895A61ECE7C0463A
:1036FC00980000206001002010B58AB0504B5A6928
:10370C00632A04D84F4B1B784F490020C854E1233F
:10371C009B009A4204D94B4B1B784B490120C8544F
:10372C0048490B780133012003400B70464B197844
:10373C005B78994201D00AB010BD632A03D8434B81
:10374C001B78002B2BD13E4B5A69E1239B009A42EC
:10375C00F1D93E4B1B78002BEDD13C4B01221A705A
:10376C003B4903A8FEF7D5FD182000F0F7FD040037
:10377C000021FEF788F92378032B49D0049805998A
:10378C000131890000F05AFF002854D00490059BA9
:10379C009B00C450059B0193013305933BE02B4BDD
:1037AC0000221A702A4903A8FEF7B3FD182000F076
:1037BC00D5FD04000121FEF766F92378032B10D008
:1037CC00049805990131890000F038FF00281BD0BE
:1037DC000490059B9B00C450059B019301330593FA
:1037EC0002E003AB03221A731A4C210003A8FEF764
:1037FC0069FC0223FF33E25C21001748FFF706FA4D
:10380C0003A8FEF7BAFD9EE703AB03221A73EBE79E
:10381C0003AB03221A730F4C210003A8FEF752FCD2
:10382C000223FF33E25C21000B48FFF7EFF903A8FA
:10383C00FEF7A3FD7FE703AB03221A73EBE7C04649
:10384C0060010020B2000020B0000020B300002076
:10385C00304F0008780100207C02002030B58BB07E
:10386C0080218901BD48FDF701F9041E06D1BC4A2F
:10387C00137801331370BB4B00221A70B84B1B78B2
:10388C000A2B03D9B84B1B78012B2BD0012C64D0FD
:10389C00B44B1B78322B03D9B34B1B78002B64D061
:1038AC008021C901AD48FDF7E1F8041E00D00124C8
:1038BC0080210902A948FDF7D9F8002802D002207E
:1038CC000443E4B2A94B1B78A34209D0002B00D1CE
:1038DC0087E0A64B1B78032B00D1E0E0A34B1C70B8
:1038EC000BB030BD0023A04A13709E4A1370A04940
:1038FC0003A8FEF70EFD182000F030FD0500012195
:10390C00FEF7C1F82B78032B10D0049805990131E0
:10391C00890000F093FE00281BD00490059B9B00AF
:10392C00C550059B01930133059302E003AB0322C1
:10393C001A73904D290003A8FEF7C4FB0223FF3332
:10394C00EA5C29008C48FFF761F903A8FEF715FD26
:10395C009CE703AB03221A73EBE7824A137801331B
:10396C0013707F4B00221A7092E77F4B01221A7062
:10397C007B4B00221A707E4903A8FEF7CAFC182064
:10398C0000F0ECFC04000021FEF77DF82378032BFB
:10399C0010D0049805990131890000F04FFE0028E1
:1039AC001BD00490059B9B00C450059B01930133D5
:1039BC00059302E003AB03221A736E4C210003A89B
:1039CC00FEF780FB0223FF33E25C21006A48FFF71D
:1039DC001DF903A8FEF7D1FC62E703AB03221A73AF
:1039EC00EBE7664903A8FEF794FC022C11D0012CDE
:1039FC0032D0604D290003A8FEF764FB0223FF338D
:103A0C00EA5C29005C48FFF701F903A8FEF7B5FC56
:103A1C005FE7182000F0A2FC05000021FEF733F848
:103A2C002B78032B10D0049805990131890000F0F4
:103A3C0005FE00280CD00490059B9B00C550059BEF
:103A4C00019301330593D2E703AB03221A73CEE73C
:103A5C0003AB03221A73CAE7182000F07FFC0500A1
:103A6C000121FEF710F82B78032B10D00498059940
:103A7C000131890000F0E2FD00280CD00490059B78
:103A8C009B00C550059B019301330593B1E703AB34
:103A9C0003221A73ADE703AB03221A73A9E7374964
:103AAC0003A8FEF736FC012C11D0022C32D0314D7C
:103ABC00290003A8FEF706FB0223FF33EA5C29006A
:103ACC002D48FFF7A3F803A8FEF757FC06E71820CC
:103ADC0000F044FC05000021FDF7D5FF2B78032BEB
:103AEC0010D0049805990131890000F0A7FD002839
:103AFC000CD00490059B9B00C550059B0193013392
:103B0C000593D2E703AB03221A73CEE703AB032270
:103B1C001A73CAE7182000F021FC05000121FDF7FB
:103B2C00B2FF2B78032B10D0049805990131890032
:103B3C0000F084FD00280CD00490059B9B00C55020
:103B4C00059B019301330593B1E703AB03221A7371
:103B5C00ADE703AB03221A73A9E7C0460004004883
:103B6C00AA000020AC00002020000020AB000020A8
:103B7C00204F0008780100207C020020284F00080C
:103B8C0010B58CB005A8FEF7CFFBFEF713FF802114
:103B9C0009017B48FDF700F8FFF74AF8FFF76CF8CE
:103BAC00FFF770F8F423FF33984205D88021890081
:103BBC007348FCF7BFFFF3E7FFF75EF8FFF762F817
:103BCC00F423FF33984205D8802109016C48FCF797
:103BDC00B1FFF3E7FFF750F8FFF754F8F423FF3386
:103BEC00984205D8802149006548FCF7A3FFF3E70C
:103BFC00FFF742F88021624C89002000FCF7CCFFD3
:103C0C00802109012000FCF7C7FF8021490020001A
:103C1C00FCF7C2FF00F020FBFFF7BAFA002000F01F
:103C2C00F9F9042304220F21564800F000FB1C2351
:103C3C0008221021544800F0E5FA262308220B2113
:103C4C00524800F0DFFA00225149684600F012FD9C
:103C5C00342308220D21684600F0D4FA00F062FAF1
:103C6C00FFF70AF800240EE005A8FEF765FBFFF746
:103C7C0003F871E005A8FEF75FFBFFF703F8E123FB
:103C8C00DB0098421FD84348FEF74CFF0028F4D0C5
:103C9C004049C4239B00CA58053BFF3B9C466144EA
:103CAC0005A8FEF757FE05A8FEF7A3F90028E1D1F9
:103CBC000022394905A8FEF76AF90028D4D105A8D5
:103CCC00FEF73AFBD9E7FEF7D7FF220030496846EA
:103CDC0000F0D0FC0100622C00DC013434230822FB
:103CEC00684600F08FFA00F01DFACCE72949C4238E
:103CFC009B00CA58053BFF3B9C46614405A8FEF758
:103D0C0029FE05A8FEF775F900281BD10023234ACC
:103D1C00234905A8FEF749F90023224A224905A8A0
:103D2C00FEF743F90023214A214905A8FEF73DF986
:103D3C000023204A204905A8FEF737F905A8FEF70D
:103D4C00FBFA0EE005A8FEF7F7FA0AE0FFF7B6FC5F
:103D5C00FEF798FF05280DD80E48FEF7E3FE002865
:103D6C00C4D1FFF701FB0028F0D1FFF7A3FBFFF74D
:103D7C00C3FCEBE7FEF780FFFFF770FDECE7C046F6
:103D8C0000040048884F0008984F0008AC4F00080A
:103D9C00B84F00087C020020C84F00085D2E0008B8
:103DAC00D04F0008C12F0008D84F0008053100087B
:103DBC00E04F000825300008EC4F000810B5024910
:103DCC000120FFF789F910BDFFFF0000F0B5DE46BA
:103DDC0057464E464546E0B589B006AC2000FCF788
:103DEC0039FE01AD2800FDF707F901218020800282
:103DFC00FDF75EF8802001214001FDF783F8A02338
:103E0C0006939E3B23710027A77101339A46637179
:103E1C00E7719026F60521003000FCF78BFD00229F
:103E2C0005213000FCF7EAFE002207213000FCF7E8
:103E3C00E5FE234B2B8082235B006B80E023DB00B1
:103E4C009B46AB8000239946EF802F8180239B00FB
:103E5C0098466B811023AB81EF81093B2B82194F64
:103E6C0029003800FDF7D6F801213800FDF7BCF920
:103E7C00012180208002FDF71BF85B46069301238D
:103E8C0023714B46A371534663714B46E37121007A
:103E9C003000FCF74FFD802149003000FCF77CFE20
:103EAC0041463000FCF746FE8021C9003000FCF78B
:103EBC0041FE09B03CBC90469946A246AB46F0BDCB
:103ECC0000C0FFFF00300140704700007F23194005
:103EDC00403B1340DB08DB01CB180A49C95C0028C6
:103EEC0008D1072010400122824091430A00054965
:103EFC00CA54704707201040012282400A43D2B2B4
:103F0C00F5E7C046B4070020F0B5C64600B506007C
:103F1C008846170000251EE0E219D2B24346E91884
:103F2C00C9B20020FFF7D2FF0134E4B2072C10D83D
:103F3C00B3009B19EB180C4AD35C2341DB07EBD580
:103F4C00E219D2B24346E918C9B20120FFF7BEFF0D
:103F5C00EAE70135EDB2042D01D80024E6E705208F
:103F6C0004BC9046F0BDC046F84F000810B50028C0
:103F7C0006D180219020C900C005FCF70DFE10BDB4
:103F8C0080219020C900C005FCF7D4FDF7E710B5DF
:103F9C00002806D1802190208900C005FCF7FCFD8B
:103FAC0010BD802190208900C005FCF7C3FDF7E708
:103FBC0010B5002806D1802190204900C005FCF7DF
:103FCC00EBFD10BD802190204900C005FCF7B2FD2F
:103FDC00F7E7000010B501000448FDF72DF980212A
:103FEC000248FDF741F90028F9D110BD003001401D
:103FFC0010B504000120FFF7B9FF0020FFF7C7FF41
:10400C000020FFF7B3FF2000FFF7E4FF0120FFF7CC
:10401C00ADFF10BD10B50400FFF7D8FE002304E07F
:10402C003E4A0021D15401339BB23D4A9342F7D909
:10403C000120FFF7BDFF0520FEF72AFE0020FFF749
:10404C00B7FF0520FEF724FE0120FFF7B1FFAE20DD
:10405C00FFF7CEFF0020FFF7CBFF1020FFF7C8FFC4
:10406C004020FFF7C5FF8120FFF7C2FF012C49D08C
:10407C00CF20FFF7BDFFA120FFF7BAFFA620FFF767
:10408C00B7FFA420FFF7B4FFA820FFF7B1FF3F2034
:10409C00FFF7AEFFD320FFF7ABFF0020FFF7A8FF21
:1040AC00D520FFF7A5FFF020FFF7A2FFD920FFF7DF
:1040BC009FFF012C2AD0F120FFF79AFFDA20FFF79F
:1040CC0097FF1220FFF794FFDB20FFF791FF4020B2
:1040DC00FFF78EFF2020FFF78BFF0020FFF788FFF4
:1040EC00A120FFF785FFC820FFF782FF8D20FFF787
:1040FC007FFF012C0ED01420FFF77AFFAF20FFF7C3
:10410C0077FF10BD9F20FFF773FFB4E72220FFF766
:10411C006FFFD3E71020FFF76BFFEFE7B40700202A
:10412C00FF03000010B50020FFF762FF1020FFF71F
:10413C005FFF4020FFF75CFF0120FFF717FF012016
:10414C00FFF725FF0020FFF711FF00240CE00A4BBE
:10415C00195D0A48FDF770F880210848FDF784F8CE
:10416C000028F9D10134A4B2054B9C42EFD90120AF
:10417C00FFF7FCFE10BDC046B40700200030014024
:10418C00FF03000070B5072505400020FFF730FF46
:10419C001020FFF72DFF502040422843C0B2FFF7FC
:1041AC0027FF144A1378013301210B4013700120AF
:1041BC00FFF7DCFE0120FFF7EAFE0020FFF7D6FE3A
:1041CC0000240EE0EB01E3180B4AD15C0B48FDF721
:1041DC0033F880210948FDF747F80028F9D101345C
:1041EC00A4B27F2CEED9064B80221A700120FFF767
:1041FC00BDFE70BD95070020B407002000300140C3
:10420C0094070020F0B583B007000E001500019351
:10421C00002408E06B461A79E9B2385DFFF774FEAA
:10422C00451901350134B442F4DB03B0F0BDF0B5EF
:10423C0083B007000E0015000193002408E06B46C4
:10424C001A79E9B2385DFFF75FFE45190235013482
:10425C00B442F4DB03B0F0BDF0B58BB002AD280076
:10426C00FCF7F8FB04A8FDF713F98024A402012144
:10427C002000FCF71DFE01212000FCF76DFE012241
:10428C0002219020C005FCF7B9FC012203219020EB
:10429C00C005FCF7B3FC0C26029603236B71013BA3
:1042AC002B710024AC710127EF7129009020C005FF
:1042BC00FCF740FB0E4B0493059406940794099469
:1042CC0008960C4D04A92800FDF706F801220A49AE
:1042DC002800FDF76DF901A81C230370447087704A
:1042EC00FCF7D8FC01212800FDF7DEF80BB0F0BD7F
:1042FC0020A10700004400400501050010B5040092
:10430C0080210548FDF7D8F90028F9D0A1B2024860
:10431C00FDF7FCF810BDC0460044004010B509493B
:10432C000948FDF73DFA002800D110BD0648FDF7FD
:10433C001DF9064A13880649C8540133FF210B4066
:10434C001380F2E7050105000044004096070020A9
:10435C00B40B002010B500F0B5F810BD10B5041E5C
:10436C0000D10134200000F0A3F8002807D100F0A0
:10437C0007F8002801D1FDF7A0FA8047F2E710BD3D
:10438C00014B18687047C0469C0700200022430868
:10439C008B4274D303098B425FD3030A8B4244D301
:1043AC00030B8B4228D3030C8B420DD3FF22090243
:1043BC0012BA030C8B4202D31212090265D0030B02
:1043CC008B4219D300E0090AC30B8B4201D3CB03F8
:1043DC00C01A5241830B8B4201D38B03C01A52413A
:1043EC00430B8B4201D34B03C01A5241030B8B423C
:1043FC0001D30B03C01A5241C30A8B4201D3CB0227
:10440C00C01A5241830A8B4201D38B02C01A52410B
:10441C00430A8B4201D34B02C01A5241030A8B420E
:10442C0001D30B02C01A5241CDD2C3098B4201D326
:10443C00CB01C01A524183098B4201D38B01C01AA4
:10444C00524143098B4201D34B01C01A524103091B
:10445C008B4201D30B01C01A5241C3088B4201D3CA
:10446C00CB00C01A524183088B4201D38B00C01A77
:10447C00524143088B4201D34B00C01A5241411A9E
:10448C0000D20146524110467047FFE701B50020AB
:10449C0000F006F802BDC0460029F7D076E7704759
:1044AC007047C046014B18687047C0462400002076
:1044BC0010B5034B0100186800F062F810BDC0463F
:1044CC002400002010B5034B0100186800F00EF812
:1044DC0010BDC04624000020002310B59A4200D124
:1044EC0010BDCC5CC4540133F8E7000070B5050076
:1044FC00002910D00C1F2368002B00DAE4182800C8
:10450C0000F002F91D4A1368002B05D1636014609A
:10451C00280000F0FAF870BDA34209D92168601890
:10452C008342F3D118685B6841182160EEE71300F1
:10453C005A68002A01D0A242F9D919685818A04229
:10454C000BD120680918581819608242E0D1106804
:10455C005268411819605A60DAE7A04202D90C235C
:10456C002B60D5E721686018824203D1106852682D
:10457C004118216062605C60CAE7C046A007002059
:10458C00032370B5CD1C9D43083506000C2D1ED29F
:10459C000C25A9421DD8300000F0B6F8254A146845
:1045AC002100002919D1244C2368002B03D13000A1
:1045BC0000F04EF820602900300000F049F8431C50
:1045CC002BD10C233000336000F09FF803E0002D5A
:1045DC00DFDA0C233360002070BD0B685B1B19D431
:1045EC000B2B03D90B60CC18256003E04B688C4275
:1045FC000DD11360300000F088F8200007220B303A
:10460C00231D9043C31AE7D05A42E250E4E763609B
:10461C000C00EFE70C004968C3E70323C41C9C4360
:10462C00A042E1D0211A300000F012F8431CDBD17B
:10463C00C7E7C046A0070020A407002010B5034B15
:10464C000A000100186800F061F810BD2400002079
:10465C00002370B5064C050008002360FDF732F905
:10466C00431C03D12368002B00D02B6070BDC046C7
:10467C00A80700200EB400B50B499CB01DAB0290EE
:10468C000690079104910948094904CB05910068EB
:10469C0002A9019300F0C2F80023029A13701CB017
:1046AC0008BC03B01847C046FFFFFF7F2400002062
:1046BC000802FFFF02780B78002A03D00130013189
:1046CC009A42F7D0D01A704703000A7801311A7059
:1046DC000133002AF9D170470023C25C0133002A50
:1046EC00FBD1581E7047002330B59A420AD0013ACC
:1046FC00C45CCD5CAC4204D1934202D00133002C9B
:10470C00F6D1631B180030BD70477047F8B5070031
:10471C000D001600002905D11100FFF731FF040030
:10472C002000F8BD002A03D1FFF7E0FE3400F7E7C4
:10473C0000F006FB2C00B042F2D231003800FFF73B
:10474C001FFF041EECD029003200FFF7C5FE290024
:10475C003800FFF7CBFEE3E7F0B58E6885B00700B5
:10476C000C00039201939E423CD890238A89DB0073
:10477C001A4234D00325096923685B1A02936369D2
:10478C0002985D43EB0F5D19019B6D1001331B18F3
:10479C00AB4200D91D00530532D529003800FFF774
:1047AC00EFFE061E09D10C233B6040230120A28999
:1047BC0040421343A38105B0F0BD029A2169FFF773
:1047CC008BFEA389144A1A4080231343A381029BB6
:1047DC002661F61826606561019EED1AA560019BA5
:1047EC009E4200D9019E32000399206800F095FA90
:1047FC00A36800209B1BA36023689E192660DAE740
:10480C002A003800FFF782FF061EE0D1216938002C
:10481C00FFF76CFEC7E7C0467FFBFFFFF0B59FB00C
:10482C00029005938B890F0016001B0611D50B699E
:10483C00002B0ED14021FFF7A3FE38603861002811
:10484C0005D10C23029A013813601FB0F0BD402330
:10485C007B61002306AC6361203363761033A3764F
:10486C0035002B78002B01D0252B46D1AB1B0493A4
:10487C000CD0320039000298FFF76EFF431C00D1B8
:10488C00AEE06269049B9446634463612B78002B11
:10489C0000D1A5E0012200235242626002A95432E9
:1048AC0052186E1C2360E360A3601370A36531780B
:1048BC000522544800F026FA751C00281FD12268E6
:1048CC00D30604D5532302A95B18202119701307B2
:1048DC0004D5532302A95B182B21197033782A2B8A
:1048EC0016D0350000210A20E3682A786E1C303A75
:1048FC00092A4ED9002918D010E00135B1E7414BF7
:10490C002268C01A01238340134323602E00CEE794
:10491C00059B191D1B680591002B01DB099304E015
:10492C005B42E3600223134323602B782E2B0AD1C6
:10493C006B782A2B35D1059B02351A1D1B68059205
:10494C00002B2BDB0793304E29780322300000F02C
:10495C00D9F9002806D04023801B834022680135FA
:10496C00134323602978062228486E1C217600F018
:10497C00C9F900283CD0264B002B25D10722059BDA
:10498C0007339343083305936369039A9B18636158
:10499C0066E7434301219B183500A6E701235B42E0
:1049AC00D0E700230A201A000135636029786E1CB9
:1049BC003039092903D9002BC5D00792C3E74243EC
:1049CC00012352183500F1E705AB00933A00114B67
:1049DC002100029800E000BF0390039B0133D3D168
:1049EC00BB890B985B0600D42FE7012040422CE7D3
:1049FC0005AB00933A00074B2100029800F07AF8BF
:104A0C00EAE7C046F3540008F9540008FD540008C6
:104A1C000000000065470008F7B5150001938A688F
:104A2C000B6900900C00934200DA130022002B60FB
:104A3C0043321278002A01D001332B6023689B0685
:104A4C0002D52B6802332B60062723681F4027D022
:104A5C00230043331B785A1E93412268920630D4AC
:104A6C002200019943320098089EB047431C25D080
:104A7C00062320682A68E16803400025042B03D133
:104A8C008D1AEB43DB171D40A3682269934201DDAD
:104A9C009B1AED180027BD4220D1002010E00137F1
:104AAC00E3682A689B1ABB42D2DD2200012319322B
:104ABC0001990098089EB047431CF0D10120404258
:104ACC00FEBD3020E1184331087021005A1C4531DD
:104ADC000978A218433202331170C1E72200012376
:104AEC001A3201990098089EB047431CE6D0013752
:104AFC00D1E70000F0B589B004920A004332059367
:104B0C00039002920A7E0C000E9B6E2A00D186E066
:104B1C001FD8632A33D008D8002A00D18CE0582A39
:104B2C004DD0250042352A7030E0642A01D0692A24
:104B3C00F7D1196825680A1D280629D508681A6056
:104B4C00002803DA2D23029A404213706B4E0A2779
:104B5C004FE0732A74D008D86F2A1FD0702AE0D186
:104B6C00202209680A43226003E0752A16D0782AAD
:104B7C00D7D12200782145321170614E22E02500F8
:104B8C001A684235111D196013682B70012365E0FA
:104B9C0008681A606906D3D500B2D1E71968256890
:104BAC00081D186008682E0605D5544E08276F2A74
:104BBC001BD00A2719E06D06F7D580B2F5E7453111
:104BCC004E4E0A7018682268011D0068196015069F
:104BDC0021D5D30702D520231A43226010270028A1
:104BEC0003D1202322689A432260230000224333FE
:104BFC001A706368A360002B58DB04222168914370
:104C0C002160002854D1029D002B5AD02500337806
:104C1C0042352B7055E05506DBD580B2D9E71A68C2
:104C2C000D68101D4969186013682E0601D51960AE
:104C3C0002E06D06FBD519800023029D23614FE035
:104C4C001A68111D1960156800216268280000F0AF
:104C5C0059F8002801D0401B606063682361002371
:104C6C00029A13703CE023692A0004990398059D6D
:104C7C00A847431C3ED023689B0715D4079BE068CC
:104C8C00984239DA180037E02200012319320499CE
:104C9C000398059EB047431C2CD00135E368079A56
:104CAC009B1AAB42F0DCE9E70025F7E70028ADD012
:104CBC00029D3900FFF7F0FB735C013D2B7000285F
:104CCC00F7D1082F09D12368DB0706D56368226961
:104CDC00934202DC3023013D2B70029B5B1B236152
:104CEC00059B07AA00932100049B0398FFF794FEF1
:104CFC00431CB8D10120404209B0F0BD0455000856
:104D0C0015550008C9B28218904201D10020704795
:104D1C0003788B42FBD00130F6E710B5884202D9FC
:104D2C008B18984203D3002307E08B5C8354013A21
:104D3C00FBD210BDCC5CC45401339A42FAD1F8E7D3
:104D4C000B1F1B68181F002B01DA0B58C01870477B
:104D5C002E2E2F73797374656D2F7372632F73748A
:104D6C006D333266302D7374647065726970682FA0
:104D7C0073746D3332663078785F6164632E6300D0
:104D8C002E2E2F73797374656D2F7372632F73745A
:104D9C006D333266302D7374647065726970682F70
:104DAC0073746D3332663078785F646D612E630096
:104DBC002E2E2F73797374656D2F7372632F73742A
:104DCC006D333266302D7374647065726970682F40
:104DDC0073746D3332663078785F6770696F2E63E9
:104DEC00000000002E2E2F73797374656D2F737273
:104DFC00632F73746D333266302D73746470657207
:104E0C006970682F73746D3332663078785F6D69B2
:104E1C0073632E63000000002E2E2F73797374655C
:104E2C006D2F7372632F73746D333266302D737400
:104E3C00647065726970682F73746D333266307884
:104E4C00785F7263632E63002E2E2F7379737465F3
:104E5C006D2F7372632F73746D333266302D7374D0
:104E6C00647065726970682F73746D333266307854
:104E7C00785F7370692E63002E2E2F7379737465AF
:104E8C006D2F7372632F73746D333266302D7374A0
:104E9C00647065726970682F73746D333266307824
:104EAC00785F75736172742E63000000D027000860
:104EBC003A270008662500083A270008AC240008A9
:104ECC003A2700083A270008F22300083A2700087E
:104EDC003A2700083A2700083A2700083A27000822
:104EEC003A2700083A2700083A2700083A27000812
:104EFC00362700082C260008B8280008C22800080D
:104F0C00D2280008E2280008EA2800081429000822
:104F1C001E2900082F656E63627574002F656E6321
:104F2C00000000002F6673002F6B657900000000F5
:104F3C002F6B6E6F627300005368757474696E67C3
:104F4C0020646F776E3A2025642025250000000030
:104F5C0053687574646F776E20636F6D706C6574D5
:104F6C00652E00005361666520746F2072656D6F4D
:104F7C00766520706F7765722E000000204F70658B
:104F8C006E2050642053796E746820006F70656ECB
:104F9C005F73796E74682E6C6F63616C0000000037
:104FAC00666F722073746F726167650073746172DF
:104FBC0074696E673A202564202525002F7265617F
:104FCC00647900002F6C6564000000002F6F6C6525
:104FDC00640000002F6765746B6E6F6273000000D5
:104FEC002F73687574646F776E000000000000000A
:104FFC00003E5B4F5B3E3E6B4F6B3E1C3E7C3E1C53
:10500C00183C7E3C181C577D571C1C5E7F5E1C0098
:10501C00183C1800FFE7C3E7FF0018241800FFE74F
:10502C00DBE7FF30483A060E2629792926407F0512
:10503C000507407F05253F5A3CE73C5A7F3E1C1C28
:10504C0008081C1C3E7F14227F22145F5F005F5FE8
:10505C0006097F017F006689956A606060606094D4
:10506C00A2FFA29408047E040810207E20100808D9
:10507C002A1C08081C2A08081E101010100C1E0CE4
:10508C001E0C30383E3830060E3E0E060000000076
:10509C000000005F00000007000700147F147F145D
:1050AC00242A7F2A122313086462364956205000A2
:1050BC0008070300001C2241000041221C002A1C8E
:1050CC007F1C2A08083E0808008070300008080879
:1050DC000808000060600020100804023E51494599
:1050EC003E00427F400072494949462141494D33B7
:1050FC001814127F1027454545393C4A494931411E
:10510C00211109073649494936464949291E0000EB
:10511C001400000040340000000814224114141440
:10512C001414004122140802015909063E415D592C
:10513C004E7C1211127C7F494949363E4141412235
:10514C007F4141413E7F494949417F090909013E5F
:10515C00414151737F0808087F00417F4100204086
:10516C00413F017F081422417F404040407F021C98
:10517C00027F7F0408107F3E4141413E7F090909AF
:10518C00063E4151215E7F0919294626494949327B
:10519C0003017F01033F4040403F1F2040201F3F41
:1051AC004038403F631408146303047804036159C6
:1051BC00494D43007F414141020408102000414108
:1051CC00417F0402010204404040404000030708B4
:1051DC000020545478407F284444383844444428B0
:1051EC00384444287F385454541800087E09021857
:1051FC00A4A49C787F0804047800447D40002040DF
:10520C00403D007F1028440000417F40007C047822
:10521C0004787C080404783844444438FC1824246A
:10522C001818242418FC7C080404084854545424EA
:10523C0004043F44243C4040207C1C2040201C3C67
:10524C004030403C44281028444C9090907C44645E
:10525C00544C4400083641000000770000004136F1
:10526C00080002010204023C2623263C1EA1A16177
:10527C00123A4040207A38545455592155557941A9
:10528C002254547842215554784020545579400C7E
:10529C001E52721239555555593954545459395561
:1052AC005454580000457C410002457D42000145A4
:1052BC007C407D1211127DF0282528F07C54554538
:1052CC00002054547C547C0A097F493249494932A4
:1052DC003A4444443A324A4848303A4141217A3AB5
:1052EC0042402078009DA0A07D3D4242423D3D4081
:1052FC0040403D3C24FF2424487E4943662B2FFC30
:10530C002F2BFF0929F620C0887E090320545479DD
:10531C00410000447D413048484A32384040227AAE
:10532C00007A0A0A727D0D19317D2629292F28262B
:10533C002929292630484D40203808080808080833
:10534C000808382F10C8ACBA2F102834FA00007B8C
:10535C00000008142A142222142A1408AA0055004A
:10536C00AAAA55AA55AA000000FF00101010FF00B1
:10537C00141414FF001010FF00FF1010F010F014A4
:10538C001414FC001414F700FF0000FF00FF1414A9
:10539C00F404FC141417101F10101F101F141414F5
:1053AC001F00101010F0000000001F101010101F34
:1053BC0010101010F010000000FF10101010101042
:1053CC00101010FF10000000FF140000FF00FF0081
:1053DC00001F10170000FC04F414141710171414F9
:1053EC00F404F40000FF00F714141414141414F74C
:1053FC0000F7141414171410101F101F141414F4A5
:10540C00141010F010F000001F101F0000001F14EB
:10541C00000000FC140000F010F01010FF10FF143E
:10542C001414FF141010101F00000000F010FFFFE8
:10543C00FFFFFFF0F0F0F0F0FFFFFF0000000000B6
:10544C00FFFF0F0F0F0F0F3844443844FC4A4A4AF1
:10545C00347E02020606027E027E026355494163D7
:10546C003844443C04407E201E2006027E020299F1
:10547C00A5E7A5991C2A492A1C4C7201724C304A8A
:10548C004D4D303048784830BC625A463D3E494913
:10549C0049007E0101017E2A2A2A2A2A44445F44BB
:1054AC004440514A444040444A51400000FF0103EB
:1054BC00E080FF000008086B6B08361236243606B5
:1054CC000F090F06000018180000001010003040E3
:1054DC00FF0101001F01011E00191D1712003C3CA9
:1054EC003C3C0000000000232D302B2000686C4C4D
:1054FC000065666745464700303132333435363700
:10550C003839414243444546003031323334353624
:0A551C003738396162636465660088
:10552800785634120000000001020304010203044B
:10553800060708099400002000000000006CDC0247
:10554800010000002800002000000000000000000A
:105558000000000000000000000000000000000043
:105568000000000000000000000000000000000033
:105578000000000000000000000000000000000023
:105588000000000000000000000000000000000013
:105598000000000000000000000000000000000003
:0C55A80000000000000000003254769863
:04000005080000C52A
:00000001FF
